{
    "_format": "hh-sol-artifact-1",
    "contractName": "TokenizedBallot",
    "sourceName": "contracts/TokenizedBallot.sol",
    "abi": [
        {
            "inputs": [
                {
                    "internalType": "bytes32[]",
                    "name": "_proposalNames",
                    "type": "bytes32[]"
                },
                {
                    "internalType": "address",
                    "name": "_tokenContract",
                    "type": "address"
                },
                {
                    "internalType": "uint256",
                    "name": "_targetBlockNumber",
                    "type": "uint256"
                }
            ],
            "stateMutability": "nonpayable",
            "type": "constructor"
        },
        {
            "inputs": [
                {
                    "internalType": "address",
                    "name": "voter_",
                    "type": "address"
                }
            ],
            "name": "getVotePower",
            "outputs": [
                {
                    "internalType": "uint256",
                    "name": "",
                    "type": "uint256"
                }
            ],
            "stateMutability": "view",
            "type": "function"
        },
        {
            "inputs": [
                {
                    "internalType": "uint256",
                    "name": "",
                    "type": "uint256"
                }
            ],
            "name": "proposals",
            "outputs": [
                {
                    "internalType": "bytes32",
                    "name": "name",
                    "type": "bytes32"
                },
                {
                    "internalType": "uint256",
                    "name": "voteCount",
                    "type": "uint256"
                }
            ],
            "stateMutability": "view",
            "type": "function"
        },
        {
            "inputs": [],
            "name": "targetBlockNumber",
            "outputs": [
                {
                    "internalType": "uint256",
                    "name": "",
                    "type": "uint256"
                }
            ],
            "stateMutability": "view",
            "type": "function"
        },
        {
            "inputs": [],
            "name": "tokenContract",
            "outputs": [
                {
                    "internalType": "contract IMyToken",
                    "name": "",
                    "type": "address"
                }
            ],
            "stateMutability": "view",
            "type": "function"
        },
        {
            "inputs": [
                {
                    "internalType": "uint256",
                    "name": "proposal",
                    "type": "uint256"
                },
                {
                    "internalType": "uint256",
                    "name": "amount",
                    "type": "uint256"
                }
            ],
            "name": "vote",
            "outputs": [],
            "stateMutability": "nonpayable",
            "type": "function"
        },
        {
            "inputs": [
                {
                    "internalType": "address",
                    "name": "",
                    "type": "address"
                }
            ],
            "name": "votePowerSpent",
            "outputs": [
                {
                    "internalType": "uint256",
                    "name": "",
                    "type": "uint256"
                }
            ],
            "stateMutability": "view",
            "type": "function"
        },
        {
            "inputs": [],
            "name": "winnerName",
            "outputs": [
                {
                    "internalType": "bytes32",
                    "name": "winnerName_",
                    "type": "bytes32"
                }
            ],
            "stateMutability": "view",
            "type": "function"
        },
        {
            "inputs": [],
            "name": "winningProposal",
            "outputs": [
                {
                    "internalType": "uint256",
                    "name": "winningProposal_",
                    "type": "uint256"
                }
            ],
            "stateMutability": "view",
            "type": "function"
        }
    ],
    "bytecode": "0x608060405234801561001057600080fd5b5060405161111038038061111083398181016040528101906100329190610343565b816000806101000a81548173ffffffffffffffffffffffffffffffffffffffff021916908373ffffffffffffffffffffffffffffffffffffffff1602179055508060028190555060005b835181101561010357600160405180604001604052808684815181106100a5576100a46103b2565b5b602002602001015181526020016000815250908060018154018082558091505060019003906000526020600020906002020160009091909190915060008201518160000155602082015181600101555050808060010191505061007c565b505050506103e1565b6000604051905090565b600080fd5b600080fd5b600080fd5b6000601f19601f8301169050919050565b7f4e487b7100000000000000000000000000000000000000000000000000000000600052604160045260246000fd5b61016e82610125565b810181811067ffffffffffffffff8211171561018d5761018c610136565b5b80604052505050565b60006101a061010c565b90506101ac8282610165565b919050565b600067ffffffffffffffff8211156101cc576101cb610136565b5b602082029050602081019050919050565b600080fd5b6000819050919050565b6101f5816101e2565b811461020057600080fd5b50565b600081519050610212816101ec565b92915050565b600061022b610226846101b1565b610196565b9050808382526020820190506020840283018581111561024e5761024d6101dd565b5b835b8181101561027757806102638882610203565b845260208401935050602081019050610250565b5050509392505050565b600082601f83011261029657610295610120565b5b81516102a6848260208601610218565b91505092915050565b600073ffffffffffffffffffffffffffffffffffffffff82169050919050565b60006102da826102af565b9050919050565b6102ea816102cf565b81146102f557600080fd5b50565b600081519050610307816102e1565b92915050565b6000819050919050565b6103208161030d565b811461032b57600080fd5b50565b60008151905061033d81610317565b92915050565b60008060006060848603121561035c5761035b610116565b5b600084015167ffffffffffffffff81111561037a5761037961011b565b5b61038686828701610281565b9350506020610397868287016102f8565b92505060406103a88682870161032e565b9150509250925092565b7f4e487b7100000000000000000000000000000000000000000000000000000000600052603260045260246000fd5b610d20806103f06000396000f3fe608060405234801561001057600080fd5b50600436106100885760003560e01c80639e90d0d91161005b5780639e90d0d914610118578063b384abef14610148578063bb9c092014610164578063e2ba53f01461019457610088565b8063013cf08b1461008d5780632a8cd29e146100be57806355a373d6146100dc578063609ff1bd146100fa575b600080fd5b6100a760048036038101906100a29190610747565b6101b2565b6040516100b592919061079c565b60405180910390f35b6100c66101e6565b6040516100d391906107c5565b60405180910390f35b6100e46101ec565b6040516100f1919061085f565b60405180910390f35b610102610210565b60405161010f91906107c5565b60405180910390f35b610132600480360381019061012d91906108b8565b610292565b60405161013f91906107c5565b60405180910390f35b610162600480360381019061015d91906108e5565b6102aa565b005b61017e600480360381019061017991906108b8565b6103c6565b60405161018b91906107c5565b60405180910390f35b61019c6104b7565b6040516101a99190610925565b60405180910390f35b600181815481106101c257600080fd5b90600052602060002090600202016000915090508060000154908060010154905082565b60025481565b60008054906101000a900473ffffffffffffffffffffffffffffffffffffffff1681565b6000806000905060005b60018054905081101561028d57816001828154811061023c5761023b610940565b5b9060005260206000209060020201600101541115610280576001818154811061026857610267610940565b5b90600052602060002090600202016001015491508092505b808060010191505061021a565b505090565b60036020528060005260406000206000915090505481565b60006102b5336103c6565b9050818110156102c4826104eb565b6102cd846104eb565b6040516020016102de929190610ac4565b6040516020818303038152906040529061032e576040517f08c379a00000000000000000000000000000000000000000000000000000000081526004016103259190610b59565b60405180910390fd5b5081600360003373ffffffffffffffffffffffffffffffffffffffff1673ffffffffffffffffffffffffffffffffffffffff168152602001908152602001600020600082825461037e9190610baa565b92505081905550816001848154811061039a57610399610940565b5b906000526020600020906002020160010160008282546103ba9190610baa565b92505081905550505050565b6000600360008373ffffffffffffffffffffffffffffffffffffffff1673ffffffffffffffffffffffffffffffffffffffff1681526020019081526020016000205460008054906101000a900473ffffffffffffffffffffffffffffffffffffffff1673ffffffffffffffffffffffffffffffffffffffff16633a46b1a8846002546040518363ffffffff1660e01b8152600401610465929190610bed565b602060405180830381865afa158015610482573d6000803e3d6000fd5b505050506040513d601f19601f820116820180604052508101906104a69190610c2b565b6104b09190610c58565b9050919050565b600060016104c3610210565b815481106104d4576104d3610940565b5b906000526020600020906002020160000154905090565b6060600060016104fa846105b9565b01905060008167ffffffffffffffff81111561051957610518610c8c565b5b6040519080825280601f01601f19166020018201604052801561054b5781602001600182028036833780820191505090505b509050600082602001820190505b6001156105ae578080600190039150507f3031323334353637383961626364656600000000000000000000000000000000600a86061a8153600a85816105a2576105a1610cbb565b5b04945060008503610559575b819350505050919050565b600080600090507a184f03e93ff9f4daa797ed6e38ed64bf6a1f0100000000000000008310610617577a184f03e93ff9f4daa797ed6e38ed64bf6a1f010000000000000000838161060d5761060c610cbb565b5b0492506040810190505b6d04ee2d6d415b85acef81000000008310610654576d04ee2d6d415b85acef8100000000838161064a57610649610cbb565b5b0492506020810190505b662386f26fc10000831061068357662386f26fc10000838161067957610678610cbb565b5b0492506010810190505b6305f5e10083106106ac576305f5e10083816106a2576106a1610cbb565b5b0492506008810190505b61271083106106d15761271083816106c7576106c6610cbb565b5b0492506004810190505b606483106106f457606483816106ea576106e9610cbb565b5b0492506002810190505b600a8310610703576001810190505b80915050919050565b600080fd5b6000819050919050565b61072481610711565b811461072f57600080fd5b50565b6000813590506107418161071b565b92915050565b60006020828403121561075d5761075c61070c565b5b600061076b84828501610732565b91505092915050565b6000819050919050565b61078781610774565b82525050565b61079681610711565b82525050565b60006040820190506107b1600083018561077e565b6107be602083018461078d565b9392505050565b60006020820190506107da600083018461078d565b92915050565b600073ffffffffffffffffffffffffffffffffffffffff82169050919050565b6000819050919050565b600061082561082061081b846107e0565b610800565b6107e0565b9050919050565b60006108378261080a565b9050919050565b60006108498261082c565b9050919050565b6108598161083e565b82525050565b60006020820190506108746000830184610850565b92915050565b6000610885826107e0565b9050919050565b6108958161087a565b81146108a057600080fd5b50565b6000813590506108b28161088c565b92915050565b6000602082840312156108ce576108cd61070c565b5b60006108dc848285016108a3565b91505092915050565b600080604083850312156108fc576108fb61070c565b5b600061090a85828601610732565b925050602061091b85828601610732565b9150509250929050565b600060208201905061093a600083018461077e565b92915050565b7f4e487b7100000000000000000000000000000000000000000000000000000000600052603260045260246000fd5b600081905092915050565b7f4572726f723a20547279696e6720746f20766f74652077697468206d6f72652060008201527f766f746573207468616e20617661696c61626c652e20417661696c61626c653a60208201527f2000000000000000000000000000000000000000000000000000000000000000604082015250565b60006109fc60418361096f565b9150610a078261097a565b604182019050919050565b600081519050919050565b60005b83811015610a3b578082015181840152602081019050610a20565b60008484015250505050565b6000610a5282610a12565b610a5c818561096f565b9350610a6c818560208601610a1d565b80840191505092915050565b7f2c205370656369666965643a2000000000000000000000000000000000000000600082015250565b6000610aae600d8361096f565b9150610ab982610a78565b600d82019050919050565b6000610acf826109ef565b9150610adb8285610a47565b9150610ae682610aa1565b9150610af28284610a47565b91508190509392505050565b600082825260208201905092915050565b6000601f19601f8301169050919050565b6000610b2b82610a12565b610b358185610afe565b9350610b45818560208601610a1d565b610b4e81610b0f565b840191505092915050565b60006020820190508181036000830152610b738184610b20565b905092915050565b7f4e487b7100000000000000000000000000000000000000000000000000000000600052601160045260246000fd5b6000610bb582610711565b9150610bc083610711565b9250828201905080821115610bd857610bd7610b7b565b5b92915050565b610be78161087a565b82525050565b6000604082019050610c026000830185610bde565b610c0f602083018461078d565b9392505050565b600081519050610c258161071b565b92915050565b600060208284031215610c4157610c4061070c565b5b6000610c4f84828501610c16565b91505092915050565b6000610c6382610711565b9150610c6e83610711565b9250828203905081811115610c8657610c85610b7b565b5b92915050565b7f4e487b7100000000000000000000000000000000000000000000000000000000600052604160045260246000fd5b7f4e487b7100000000000000000000000000000000000000000000000000000000600052601260045260246000fdfea2646970667358221220dc52650c6643e41806e050d550836dc4b40ca49622437d5e3e8a4fa109a28fce64736f6c634300081b0033",
    "linkReferences": {},
    "deployedLinkReferences": {}
}